{
  "contractName": "EthPool",
  "abi": [
    {
      "inputs": [],
      "stateMutability": "nonpayable",
      "type": "constructor"
    },
    {
      "anonymous": false,
      "inputs": [
        {
          "indexed": true,
          "internalType": "address",
          "name": "depositor",
          "type": "address"
        },
        {
          "indexed": false,
          "internalType": "uint256",
          "name": "amount",
          "type": "uint256"
        }
      ],
      "name": "Deposit",
      "type": "event"
    },
    {
      "anonymous": false,
      "inputs": [
        {
          "indexed": false,
          "internalType": "uint256",
          "name": "amount",
          "type": "uint256"
        }
      ],
      "name": "RewardDistributed",
      "type": "event"
    },
    {
      "anonymous": false,
      "inputs": [
        {
          "indexed": true,
          "internalType": "address",
          "name": "depositor",
          "type": "address"
        },
        {
          "indexed": false,
          "internalType": "uint256",
          "name": "amount",
          "type": "uint256"
        }
      ],
      "name": "Withdraw",
      "type": "event"
    },
    {
      "inputs": [],
      "name": "joinPool",
      "outputs": [
        {
          "internalType": "bool",
          "name": "",
          "type": "bool"
        }
      ],
      "stateMutability": "payable",
      "type": "function"
    },
    {
      "inputs": [],
      "name": "giveReward",
      "outputs": [
        {
          "internalType": "bool",
          "name": "",
          "type": "bool"
        }
      ],
      "stateMutability": "payable",
      "type": "function"
    },
    {
      "inputs": [],
      "name": "withdraw",
      "outputs": [
        {
          "internalType": "bool",
          "name": "",
          "type": "bool"
        }
      ],
      "stateMutability": "payable",
      "type": "function"
    },
    {
      "inputs": [],
      "name": "getTotalDeposit",
      "outputs": [
        {
          "internalType": "uint256",
          "name": "",
          "type": "uint256"
        }
      ],
      "stateMutability": "view",
      "type": "function"
    },
    {
      "inputs": [
        {
          "internalType": "address",
          "name": "despositorAddress",
          "type": "address"
        }
      ],
      "name": "getDepositorAmount",
      "outputs": [
        {
          "internalType": "uint256",
          "name": "",
          "type": "uint256"
        }
      ],
      "stateMutability": "view",
      "type": "function"
    },
    {
      "inputs": [
        {
          "internalType": "address",
          "name": "despositorAddress",
          "type": "address"
        }
      ],
      "name": "getDepositorRewardedAmount",
      "outputs": [
        {
          "internalType": "uint256",
          "name": "",
          "type": "uint256"
        }
      ],
      "stateMutability": "view",
      "type": "function"
    }
  ],
  "bytecode": "0x6080604052600060015534801561001557600080fd5b50336000806101000a81548173ffffffffffffffffffffffffffffffffffffffff021916908373ffffffffffffffffffffffffffffffffffffffff1602179055506114fe806100656000396000f3fe6080604052600436106100555760003560e01c806337f867cf1461005a5780633ccfd60b146100975780637099ac0f146100b55780638371e6b4146100f25780638b82d89114610110578063c022215c1461012e575b600080fd5b34801561006657600080fd5b50610081600480360381019061007c9190610e15565b610159565b60405161008e9190611093565b60405180910390f35b61009f6101a5565b6040516100ac9190610f78565b60405180910390f35b3480156100c157600080fd5b506100dc60048036038101906100d79190610e15565b610485565b6040516100e99190611093565b60405180910390f35b6100fa6104d1565b6040516101079190610f78565b60405180910390f35b610118610872565b6040516101259190610f78565b60405180910390f35b34801561013a57600080fd5b50610143610df6565b6040516101509190611093565b60405180910390f35b6000600260008373ffffffffffffffffffffffffffffffffffffffff1673ffffffffffffffffffffffffffffffffffffffff168152602001908152602001600020600001549050919050565b600060011515600260003373ffffffffffffffffffffffffffffffffffffffff1673ffffffffffffffffffffffffffffffffffffffff16815260200190815260200160002060010160009054906101000a900460ff1615151461023d576040517f08c379a000000000000000000000000000000000000000000000000000000000815260040161023490610f93565b60405180910390fd5b6000600360003373ffffffffffffffffffffffffffffffffffffffff1673ffffffffffffffffffffffffffffffffffffffff16815260200190815260200160002060000154600260003373ffffffffffffffffffffffffffffffffffffffff1673ffffffffffffffffffffffffffffffffffffffff168152602001908152602001600020600001546102cf91906110bf565b9050600260003373ffffffffffffffffffffffffffffffffffffffff1673ffffffffffffffffffffffffffffffffffffffff168152602001908152602001600020600001546001600082825461032591906111a0565b92505081905550600260003373ffffffffffffffffffffffffffffffffffffffff1673ffffffffffffffffffffffffffffffffffffffff1681526020019081526020016000206000808201600090556001820160006101000a81549060ff02191690555050600360003373ffffffffffffffffffffffffffffffffffffffff1673ffffffffffffffffffffffffffffffffffffffff1681526020019081526020016000206000808201600090556001820160006101000a81549060ff021916905550503373ffffffffffffffffffffffffffffffffffffffff166108fc829081150290604051600060405180830381858888f1935050505015801561042e573d6000803e3d6000fd5b503373ffffffffffffffffffffffffffffffffffffffff167f884edad9ce6fa2440d8a54cc123490eb96d2768479d49ff9c7366125a9424364826040516104759190611093565b60405180910390a2600191505090565b6000600360008373ffffffffffffffffffffffffffffffffffffffff1673ffffffffffffffffffffffffffffffffffffffff168152602001908152602001600020600001549050919050565b600080339050600034905060001515600260008473ffffffffffffffffffffffffffffffffffffffff1673ffffffffffffffffffffffffffffffffffffffff16815260200190815260200160002060010160009054906101000a900460ff16151514610572576040517f08c379a000000000000000000000000000000000000000000000000000000000815260040161056990611073565b60405180910390fd5b60008054906101000a900473ffffffffffffffffffffffffffffffffffffffff1673ffffffffffffffffffffffffffffffffffffffff168273ffffffffffffffffffffffffffffffffffffffff161415610601576040517f08c379a00000000000000000000000000000000000000000000000000000000081526004016105f890610ff3565b60405180910390fd5b60008111610644576040517f08c379a000000000000000000000000000000000000000000000000000000000815260040161063b90611033565b60405180910390fd5b60008273ffffffffffffffffffffffffffffffffffffffff163190508181116106a2576040517f08c379a000000000000000000000000000000000000000000000000000000000815260040161069990611013565b60405180910390fd5b81600160008282546106b491906110bf565b925050819055506000600260008573ffffffffffffffffffffffffffffffffffffffff1673ffffffffffffffffffffffffffffffffffffffff168152602001908152602001600020604051806040016040529081600082015481526020016001820160009054906101000a900460ff161515151581525050905082816000018181525050600181602001901515908115158152505080600260008673ffffffffffffffffffffffffffffffffffffffff1673ffffffffffffffffffffffffffffffffffffffff1681526020019081526020016000206000820151816000015560208201518160010160006101000a81548160ff0219169083151502179055509050506005849080600181540180825580915050600190039060005260206000200160009091909190916101000a81548173ffffffffffffffffffffffffffffffffffffffff021916908373ffffffffffffffffffffffffffffffffffffffff1602179055508373ffffffffffffffffffffffffffffffffffffffff167fe1fffcc4923d04b559f4d29a8bfc6cda04eb5b0d3c460751c2402c5c5cc9109c8460405161085f9190611093565b60405180910390a2600194505050505090565b60008060009054906101000a900473ffffffffffffffffffffffffffffffffffffffff1673ffffffffffffffffffffffffffffffffffffffff163373ffffffffffffffffffffffffffffffffffffffff1614610903576040517f08c379a00000000000000000000000000000000000000000000000000000000081526004016108fa90610fd3565b60405180910390fd5b60003490506000811161094b576040517f08c379a000000000000000000000000000000000000000000000000000000000815260040161094290610fb3565b60405180910390fd5b600060058054905011610993576040517f08c379a000000000000000000000000000000000000000000000000000000000815260040161098a90611053565b60405180910390fd5b60005b600580549050811015610db65760006064600154606460026000600587815481106109c4576109c36112c3565b5b9060005260206000200160009054906101000a900473ffffffffffffffffffffffffffffffffffffffff1673ffffffffffffffffffffffffffffffffffffffff1673ffffffffffffffffffffffffffffffffffffffff16815260200190815260200160002060000154610a379190611146565b610a419190611115565b84610a4c9190611146565b610a569190611115565b9050600115156002600060058581548110610a7457610a736112c3565b5b9060005260206000200160009054906101000a900473ffffffffffffffffffffffffffffffffffffffff1673ffffffffffffffffffffffffffffffffffffffff1673ffffffffffffffffffffffffffffffffffffffff16815260200190815260200160002060010160009054906101000a900460ff1615151415610da257600115156003600060058581548110610b0e57610b0d6112c3565b5b9060005260206000200160009054906101000a900473ffffffffffffffffffffffffffffffffffffffff1673ffffffffffffffffffffffffffffffffffffffff1673ffffffffffffffffffffffffffffffffffffffff16815260200190815260200160002060010160009054906101000a900460ff1615151415610c2857806003600060058581548110610ba557610ba46112c3565b5b9060005260206000200160009054906101000a900473ffffffffffffffffffffffffffffffffffffffff1673ffffffffffffffffffffffffffffffffffffffff1673ffffffffffffffffffffffffffffffffffffffff1681526020019081526020016000206000016000828254610c1c91906110bf565b92505081905550610da1565b60006003600060058581548110610c4257610c416112c3565b5b9060005260206000200160009054906101000a900473ffffffffffffffffffffffffffffffffffffffff1673ffffffffffffffffffffffffffffffffffffffff1673ffffffffffffffffffffffffffffffffffffffff168152602001908152602001600020604051806040016040529081600082015481526020016001820160009054906101000a900460ff1615151515815250509050818160000181815250506001816020019015159081151581525050806003600060058681548110610d0d57610d0c6112c3565b5b9060005260206000200160009054906101000a900473ffffffffffffffffffffffffffffffffffffffff1673ffffffffffffffffffffffffffffffffffffffff1673ffffffffffffffffffffffffffffffffffffffff1681526020019081526020016000206000820151816000015560208201518160010160006101000a81548160ff021916908315150217905550905050505b5b508080610dae9061121c565b915050610996565b507f04944120d2e185fc95ba63f3ca24c385ec4c5215a801c8766c96486d7fc4ed8e81604051610de69190611093565b60405180910390a1600191505090565b6000600154905090565b600081359050610e0f816114b1565b92915050565b600060208284031215610e2b57610e2a6112f2565b5b6000610e3984828501610e00565b91505092915050565b610e4b816111e6565b82525050565b6000610e5e601e836110ae565b9150610e69826112f7565b602082019050919050565b6000610e816026836110ae565b9150610e8c82611320565b604082019050919050565b6000610ea4600c836110ae565b9150610eaf8261136f565b602082019050919050565b6000610ec7601e836110ae565b9150610ed282611398565b602082019050919050565b6000610eea601e836110ae565b9150610ef5826113c1565b602082019050919050565b6000610f0d6025836110ae565b9150610f18826113ea565b604082019050919050565b6000610f306021836110ae565b9150610f3b82611439565b604082019050919050565b6000610f536011836110ae565b9150610f5e82611488565b602082019050919050565b610f7281611212565b82525050565b6000602082019050610f8d6000830184610e42565b92915050565b60006020820190508181036000830152610fac81610e51565b9050919050565b60006020820190508181036000830152610fcc81610e74565b9050919050565b60006020820190508181036000830152610fec81610e97565b9050919050565b6000602082019050818103600083015261100c81610eba565b9050919050565b6000602082019050818103600083015261102c81610edd565b9050919050565b6000602082019050818103600083015261104c81610f00565b9050919050565b6000602082019050818103600083015261106c81610f23565b9050919050565b6000602082019050818103600083015261108c81610f46565b9050919050565b60006020820190506110a86000830184610f69565b92915050565b600082825260208201905092915050565b60006110ca82611212565b91506110d583611212565b9250827fffffffffffffffffffffffffffffffffffffffffffffffffffffffffffffffff0382111561110a57611109611265565b5b828201905092915050565b600061112082611212565b915061112b83611212565b92508261113b5761113a611294565b5b828204905092915050565b600061115182611212565b915061115c83611212565b9250817fffffffffffffffffffffffffffffffffffffffffffffffffffffffffffffffff048311821515161561119557611194611265565b5b828202905092915050565b60006111ab82611212565b91506111b683611212565b9250828210156111c9576111c8611265565b5b828203905092915050565b60006111df826111f2565b9050919050565b60008115159050919050565b600073ffffffffffffffffffffffffffffffffffffffff82169050919050565b6000819050919050565b600061122782611212565b91507fffffffffffffffffffffffffffffffffffffffffffffffffffffffffffffffff82141561125a57611259611265565b5b600182019050919050565b7f4e487b7100000000000000000000000000000000000000000000000000000000600052601160045260246000fd5b7f4e487b7100000000000000000000000000000000000000000000000000000000600052601260045260246000fd5b7f4e487b7100000000000000000000000000000000000000000000000000000000600052603260045260246000fd5b600080fd5b7f594f5520484156454e2754204445504f53495420414e5920414d4f554e540000600082015250565b7f52455741524420414d4f554e542053484f554c4420424520475245415445522060008201527f5448414e20300000000000000000000000000000000000000000000000000000602082015250565b7f494e56414c494420555345520000000000000000000000000000000000000000600082015250565b7f594f5520415245204e4f5420414c4c4f57454420544f204445504f5349540000600082015250565b7f494e53554646494349454e5420414d4f554e5420494e204143434f554e540000600082015250565b7f4445504f53495420414d4f554e54204d5553542042452047524541544552205460008201527f48414e2030000000000000000000000000000000000000000000000000000000602082015250565b7f4e4f204445504f5349544f5220544f204449535452494255544520524557415260008201527f4400000000000000000000000000000000000000000000000000000000000000602082015250565b7f414c5245414459204445504f5349544544000000000000000000000000000000600082015250565b6114ba816111d4565b81146114c557600080fd5b5056fea26469706673582212204395bd154db072b26e4e291e76c06a2a17b8af8aa5d7beb0e8d73133c9dcc18d64736f6c63430008070033",
  "immutableReferences": {},
  "source": "pragma solidity ^0.8.0;\n\ncontract EthPool {\n    \n    address owner;\n    modifier onlyowner { require(msg.sender == owner, \"INVALID USER\"); _; }\n    uint totalDeposit = 0;\n    \n    struct DepositorInfo {\n        uint amount;\n        bool isExist;\n    }\n    \n    mapping(address => DepositorInfo) depositors;\n    mapping(address => DepositorInfo) depositorsReward;\n    uint256[] depositorsIds;\n    address[] allDepositors;\n\n    event Deposit(\n        address indexed depositor,\n        uint amount\n    );\n    \n    event RewardDistributed(\n        uint amount\n    );\n    \n    event Withdraw(\n        address indexed depositor,\n        uint amount\n    );\n    \n    constructor() {\n        owner = msg.sender;\n    }\n    \n    // joinPool by depositors\n    function joinPool() public payable returns(bool) {\n        address from = msg.sender;\n        uint depositAmount = msg.value;\n        \n        require(depositors[from].isExist == false, 'ALREADY DEPOSITED');\n        require(from != owner, 'YOU ARE NOT ALLOWED TO DEPOSIT');\n        require(depositAmount > 0, 'DEPOSIT AMOUNT MUST BE GREATER THAN 0');\n        uint senderBalance = address(from).balance;\n        require(senderBalance > depositAmount, 'INSUFFICIENT AMOUNT IN ACCOUNT');\n        totalDeposit += depositAmount;\n        \n        DepositorInfo memory newDepositor = depositors[from];\n        newDepositor.amount = depositAmount;\n        newDepositor.isExist = true;\n        depositors[from] = newDepositor;\n        allDepositors.push(from);\n        \n        emit Deposit(from, depositAmount);\n        return true;\n    }\n    \n    // distribute rewards to depositors\n    function giveReward() public payable onlyowner returns(bool) {\n        uint rewardedAmount = msg.value;\n        require(rewardedAmount > 0, 'REWARD AMOUNT SHOULD BE GREATER THAN 0');\n        require(allDepositors.length > 0, 'NO DEPOSITOR TO DISTRIBUTE REWARD');\n\n        for(uint i = 0; i < allDepositors.length; i++) {\n            uint rewardAmount = (uint(rewardedAmount) * ((uint(depositors[allDepositors[i]].amount) * 100) / uint(totalDeposit))) / 100;\n            if(depositors[allDepositors[i]].isExist == true) {\n                if(depositorsReward[allDepositors[i]].isExist == true) {\n                    depositorsReward[allDepositors[i]].amount += rewardAmount;\n                }\n                else {\n                    DepositorInfo memory newRewardDepositor = depositorsReward[allDepositors[i]];\n                    newRewardDepositor.amount = rewardAmount;\n                    newRewardDepositor.isExist = true;\n                    depositorsReward[allDepositors[i]] = newRewardDepositor;\n                }   \n            }\n        }\n        \n        emit RewardDistributed(rewardedAmount);\n        return true;\n    }\n    \n    // withdraw deposit Amount & reward\n    function withdraw() public payable returns(bool) {\n        require(depositors[msg.sender].isExist == true, \"YOU HAVEN'T DEPOSIT ANY AMOUNT\");\n        \n        uint amountToWithDraw = depositors[msg.sender].amount + depositorsReward[msg.sender].amount;\n        totalDeposit -= depositors[msg.sender].amount;\n        delete depositors[msg.sender];\n        delete depositorsReward[msg.sender];\n\n        payable(msg.sender).transfer(amountToWithDraw);\n        \n        emit Withdraw(msg.sender, amountToWithDraw);\n        return true;\n    }\n    \n    // get total deposit amount\n    function getTotalDeposit() public view returns(uint) {\n        return totalDeposit;\n    }\n    \n    // get specific depositor deposited amount\n    function getDepositorAmount(address despositorAddress) public view returns(uint) {\n        return depositors[despositorAddress].amount;\n    }\n    \n    // get specific depositor reward amount\n    function getDepositorRewardedAmount(address despositorAddress) public view returns(uint) {\n        return depositorsReward[despositorAddress].amount;\n    }\n}\n",
  "sourcePath": "/Users/apple/Desktop/Projects/open geek lab/Blockchain Challenge 5/Blockchain-challenge-5-solution/contracts/EthPool.sol",
  "compiler": {
    "name": "solc",
    "version": "0.8.7+commit.e28d00a7.Emscripten.clang"
  },
  "schemaVersion": "3.4.3",
  "updatedAt": "2021-08-18T19:16:44.865Z",
  "devdoc": {
    "kind": "dev",
    "methods": {},
    "version": 1
  },
  "userdoc": {
    "kind": "user",
    "methods": {},
    "version": 1
  }
}